{
  "_format": "hh-sol-artifact-1",
  "contractName": "Voting",
  "sourceName": "contracts/Task1.sol",
  "abi": [
    {
      "inputs": [],
      "stateMutability": "nonpayable",
      "type": "constructor"
    },
    {
      "inputs": [
        {
          "internalType": "string",
          "name": "str",
          "type": "string"
        }
      ],
      "name": "ReverseStr",
      "outputs": [
        {
          "internalType": "string",
          "name": "",
          "type": "string"
        }
      ],
      "stateMutability": "pure",
      "type": "function"
    },
    {
      "inputs": [
        {
          "internalType": "uint256[]",
          "name": "arr",
          "type": "uint256[]"
        },
        {
          "internalType": "uint256",
          "name": "value",
          "type": "uint256"
        }
      ],
      "name": "binarySearch",
      "outputs": [
        {
          "internalType": "int256",
          "name": "",
          "type": "int256"
        }
      ],
      "stateMutability": "pure",
      "type": "function"
    },
    {
      "inputs": [
        {
          "internalType": "address",
          "name": "candidate",
          "type": "address"
        }
      ],
      "name": "getVotes",
      "outputs": [
        {
          "internalType": "uint256",
          "name": "",
          "type": "uint256"
        }
      ],
      "stateMutability": "view",
      "type": "function"
    },
    {
      "inputs": [
        {
          "internalType": "uint256",
          "name": "num",
          "type": "uint256"
        }
      ],
      "name": "intToRoman",
      "outputs": [
        {
          "internalType": "string",
          "name": "",
          "type": "string"
        }
      ],
      "stateMutability": "nonpayable",
      "type": "function"
    },
    {
      "inputs": [
        {
          "internalType": "uint256[]",
          "name": "arr1",
          "type": "uint256[]"
        },
        {
          "internalType": "uint256[]",
          "name": "arr2",
          "type": "uint256[]"
        }
      ],
      "name": "mergeSortedArrays",
      "outputs": [
        {
          "internalType": "uint256[]",
          "name": "mergedArr",
          "type": "uint256[]"
        }
      ],
      "stateMutability": "pure",
      "type": "function"
    },
    {
      "inputs": [
        {
          "internalType": "address",
          "name": "owner",
          "type": "address"
        }
      ],
      "name": "resetVotes",
      "outputs": [],
      "stateMutability": "nonpayable",
      "type": "function"
    },
    {
      "inputs": [
        {
          "internalType": "string",
          "name": "roman",
          "type": "string"
        }
      ],
      "name": "romanToInt",
      "outputs": [
        {
          "internalType": "uint256",
          "name": "",
          "type": "uint256"
        }
      ],
      "stateMutability": "nonpayable",
      "type": "function"
    },
    {
      "inputs": [
        {
          "internalType": "address",
          "name": "candidate",
          "type": "address"
        },
        {
          "internalType": "uint256",
          "name": "voteVal",
          "type": "uint256"
        }
      ],
      "name": "vote",
      "outputs": [],
      "stateMutability": "nonpayable",
      "type": "function"
    }
  ],
  "bytecode": "0x6080604052604051806101a001604052806103e861ffff16815260200161038461ffff1681526020016101f461ffff16815260200161019061ffff168152602001606461ffff168152602001605a61ffff168152602001603261ffff168152602001602861ffff168152602001600a61ffff168152602001600961ffff168152602001600561ffff168152602001600461ffff168152602001600161ffff16815250600490600d6100b19291906103de565b50604051806101a001604052806040518060400160405280600181526020017f4d0000000000000000000000000000000000000000000000000000000000000081525081526020016040518060400160405280600281526020017f434d00000000000000000000000000000000000000000000000000000000000081525081526020016040518060400160405280600181526020017f440000000000000000000000000000000000000000000000000000000000000081525081526020016040518060400160405280600281526020017f434400000000000000000000000000000000000000000000000000000000000081525081526020016040518060400160405280600181526020017f430000000000000000000000000000000000000000000000000000000000000081525081526020016040518060400160405280600281526020017f584300000000000000000000000000000000000000000000000000000000000081525081526020016040518060400160405280600181526020017f4c0000000000000000000000000000000000000000000000000000000000000081525081526020016040518060400160405280600281526020017f584c00000000000000000000000000000000000000000000000000000000000081525081526020016040518060400160405280600181526020017f580000000000000000000000000000000000000000000000000000000000000081525081526020016040518060400160405280600281526020017f495800000000000000000000000000000000000000000000000000000000000081525081526020016040518060400160405280600181526020017f560000000000000000000000000000000000000000000000000000000000000081525081526020016040518060400160405280600281526020017f495600000000000000000000000000000000000000000000000000000000000081525081526020016040518060400160405280600181526020017f4900000000000000000000000000000000000000000000000000000000000000815250815250600590600d6103cb929190610431565b503480156103d857600080fd5b5061082d565b828054828255906000526020600020908101928215610420579160200282015b8281111561041f578251829061ffff169055916020019190600101906103fe565b5b50905061042d919061048a565b5090565b828054828255906000526020600020908101928215610479579160200282015b82811115610478578251829081610468919061075b565b5091602001919060010190610451565b5b50905061048691906104a7565b5090565b5b808211156104a357600081600090555060010161048b565b5090565b5b808211156104c757600081816104be91906104cb565b506001016104a8565b5090565b5080546104d790610574565b6000825580601f106104e95750610508565b601f016020900490600052602060002090810190610507919061048a565b5b50565b600081519050919050565b7f4e487b7100000000000000000000000000000000000000000000000000000000600052604160045260246000fd5b7f4e487b7100000000000000000000000000000000000000000000000000000000600052602260045260246000fd5b6000600282049050600182168061058c57607f821691505b60208210810361059f5761059e610545565b5b50919050565b60008190508160005260206000209050919050565b60006020601f8301049050919050565b600082821b905092915050565b6000600883026106077fffffffffffffffffffffffffffffffffffffffffffffffffffffffffffffffff826105ca565b61061186836105ca565b95508019841693508086168417925050509392505050565b6000819050919050565b6000819050919050565b600061065861065361064e84610629565b610633565b610629565b9050919050565b6000819050919050565b6106728361063d565b61068661067e8261065f565b8484546105d7565b825550505050565b600090565b61069b61068e565b6106a6818484610669565b505050565b5b818110156106ca576106bf600082610693565b6001810190506106ac565b5050565b601f82111561070f576106e0816105a5565b6106e9846105ba565b810160208510156106f8578190505b61070c610704856105ba565b8301826106ab565b50505b505050565b600082821c905092915050565b600061073260001984600802610714565b1980831691505092915050565b600061074b8383610721565b9150826002028217905092915050565b6107648261050b565b67ffffffffffffffff81111561077d5761077c610516565b5b6107878254610574565b6107928282856106ce565b600060209050601f8311600181146107c557600084156107b3578287015190505b6107bd858261073f565b865550610825565b601f1984166107d3866105a5565b60005b828110156107fb578489015182556001820191506020850194506020810190506107d6565b868310156108185784890151610814601f891682610721565b8355505b6001600288020188555050505b505050505050565b611adf8061083c6000396000f3fe608060405234801561001057600080fd5b50600436106100885760003560e01c80639ab24eb01161005b5780639ab24eb014610125578063b12601da14610155578063caa41e1214610185578063cb159dfe146101b557610088565b80630cbc513a1461008d578063122d0b9c146100bd5780634cf0cc0d146100d95780635f74bbde14610109575b600080fd5b6100a760048036038101906100a29190610e46565b6101e5565b6040516100b49190610f03565b60405180910390f35b6100d760048036038101906100d29190610f83565b6102c3565b005b6100f360048036038101906100ee91906110f8565b6103c3565b604051610100919061122e565b60405180910390f35b610123600480360381019061011e9190611250565b610601565b005b61013f600480360381019061013a9190610f83565b61066f565b60405161014c919061129f565b60405180910390f35b61016f600480360381019061016a91906112ba565b6106b7565b60405161017c919061132f565b60405180910390f35b61019f600480360381019061019a91906113ff565b6107a3565b6040516101ac9190610f03565b60405180910390f35b6101cf60048036038101906101ca91906113ff565b61089c565b6040516101dc919061129f565b60405180910390f35b6060600060405180602001604052806000815250905060005b6004805490508110156102b0575b600481815481106102205761021f611448565b5b906000526020600020015484106102a3576004818154811061024557610244611448565b5b90600052602060002001548461025b91906114a6565b9350816005828154811061027257610271611448565b5b9060005260206000200160405160200161028d92919061160e565b604051602081830303815290604052915061020c565b80806001019150506101fe565b506102ba81610b3a565b80915050919050565b803373ffffffffffffffffffffffffffffffffffffffff168173ffffffffffffffffffffffffffffffffffffffff1614610332576040517f08c379a00000000000000000000000000000000000000000000000000000000081526004016103299061167e565b60405180910390fd5b600061033e6001610bd3565b905060005b81518110156103bd57600082828151811061036157610360611448565b5b6020026020010151905060008060008373ffffffffffffffffffffffffffffffffffffffff1673ffffffffffffffffffffffffffffffffffffffff16815260200190815260200160002081905550508080600101915050610343565b50505050565b6060600083519050600083519050600081836103df919061169e565b905060008167ffffffffffffffff8111156103fd576103fc610fb5565b5b60405190808252806020026020018201604052801561042b5781602001602082028036833780820191505090505b50905060008060005b868310801561044257508582105b156105315788828151811061045a57610459611448565b5b60200260200101518a848151811061047557610474611448565b5b6020026020010151116104d95789838061048e906116d2565b9450815181106104a1576104a0611448565b5b60200260200101518482806104b5906116d2565b9350815181106104c8576104c7611448565b5b60200260200101818152505061052c565b8882806104e5906116d2565b9350815181106104f8576104f7611448565b5b602002602001015184828061050c906116d2565b93508151811061051f5761051e611448565b5b6020026020010181815250505b610434565b5b8683101561059157898380610546906116d2565b94508151811061055957610558611448565b5b602002602001015184828061056d906116d2565b9350815181106105805761057f611448565b5b602002602001018181525050610532565b5b858210156105f1578882806105a6906116d2565b9350815181106105b9576105b8611448565b5b60200260200101518482806105cd906116d2565b9350815181106105e0576105df611448565b5b602002602001018181525050610592565b8397505050505050505092915050565b806000808473ffffffffffffffffffffffffffffffffffffffff1673ffffffffffffffffffffffffffffffffffffffff168152602001908152602001600020600082825461064f919061169e565b9250508190555061066a826001610bf490919063ffffffff16565b505050565b60008060008373ffffffffffffffffffffffffffffffffffffffff1673ffffffffffffffffffffffffffffffffffffffff168152602001908152602001600020549050919050565b600080600090506000600185516106ce91906114a6565b90505b808211610777576000600283836106e891906114a6565b6106f29190611749565b836106fd919061169e565b90508486828151811061071357610712611448565b5b60200260200101510361072b5780935050505061079d565b8486828151811061073f5761073e611448565b5b602002602001015110156107615760018161075a919061169e565b9250610771565b60018161076e91906114a6565b91505b506106d1565b7fffffffffffffffffffffffffffffffffffffffffffffffffffffffffffffffff925050505b92915050565b6060600082905060008151905060008167ffffffffffffffff8111156107cc576107cb610fb5565b5b6040519080825280601f01601f1916602001820160405280156107fe5781602001600182028036833780820191505090505b50905060005b8281101561089057838160018561081b91906114a6565b61082591906114a6565b8151811061083657610835611448565b5b602001015160f81c60f81b82828151811061085457610853611448565b5b60200101907effffffffffffffffffffffffffffffffffffffffffffffffffffffffffffff1916908160001a9053508080600101915050610804565b50809350505050919050565b6000600160036040516108ae906117c6565b908152602001604051809103902081905550600560036040516108d090611827565b908152602001604051809103902081905550600a60036040516108f290611888565b90815260200160405180910390208190555060326003604051610914906118e9565b908152602001604051809103902081905550606460036040516109369061194a565b9081526020016040518091039020819055506101f46003604051610959906119ab565b9081526020016040518091039020819055506103e8600360405161097c90611a0c565b908152602001604051809103902081905550600080600084905060005b8151811015610b25576000600167ffffffffffffffff8111156109bf576109be610fb5565b5b6040519080825280601f01601f1916602001820160405280156109f15781602001600182028036833780820191505090505b509050828281518110610a0757610a06611448565b5b602001015160f81c60f81b81600081518110610a2657610a25611448565b5b60200101907effffffffffffffffffffffffffffffffffffffffffffffffffffffffffffff1916908160001a905350600081905084600382604051610a6b9190611a21565b9081526020016040518091039020541115610ac857846002610a8d9190611a38565b600382604051610a9d9190611a21565b908152602001604051809103902054610ab691906114a6565b86610ac1919061169e565b9550610af5565b600381604051610ad89190611a21565b90815260200160405180910390205486610af2919061169e565b95505b600381604051610b059190611a21565b908152602001604051809103902054945050508080600101915050610999565b50610b2f83610c24565b829350505050919050565b610bd081604051602401610b4e9190610f03565b6040516020818303038152906040527f41304fac000000000000000000000000000000000000000000000000000000007bffffffffffffffffffffffffffffffffffffffffffffffffffffffff19166020820180517bffffffffffffffffffffffffffffffffffffffffffffffffffffffff8381831617835250505050610cbd565b50565b60606000610be383600001610cd7565b905060608190508092505050919050565b6000610c1c836000018373ffffffffffffffffffffffffffffffffffffffff1660001b610d33565b905092915050565b610cba81604051602401610c38919061129f565b6040516020818303038152906040527ff82c50f1000000000000000000000000000000000000000000000000000000007bffffffffffffffffffffffffffffffffffffffffffffffffffffffff19166020820180517bffffffffffffffffffffffffffffffffffffffffffffffffffffffff8381831617835250505050610cbd565b50565b610cd481610ccc610da3610dc4565b63ffffffff16565b50565b606081600001805480602002602001604051908101604052809291908181526020018280548015610d2757602002820191906000526020600020905b815481526020019060010190808311610d13575b50505050509050919050565b6000610d3f8383610dcf565b610d98578260000182908060018154018082558091505060019003906000526020600020016000909190919091505582600001805490508360010160008481526020019081526020016000208190555060019050610d9d565b600090505b92915050565b60006a636f6e736f6c652e6c6f679050600080835160208501845afa505050565b610df2819050919050565b600080836001016000848152602001908152602001600020541415905092915050565b610dfa611a7a565b565b6000604051905090565b600080fd5b600080fd5b6000819050919050565b610e2381610e10565b8114610e2e57600080fd5b50565b600081359050610e4081610e1a565b92915050565b600060208284031215610e5c57610e5b610e06565b5b6000610e6a84828501610e31565b91505092915050565b600081519050919050565b600082825260208201905092915050565b60005b83811015610ead578082015181840152602081019050610e92565b60008484015250505050565b6000601f19601f8301169050919050565b6000610ed582610e73565b610edf8185610e7e565b9350610eef818560208601610e8f565b610ef881610eb9565b840191505092915050565b60006020820190508181036000830152610f1d8184610eca565b905092915050565b600073ffffffffffffffffffffffffffffffffffffffff82169050919050565b6000610f5082610f25565b9050919050565b610f6081610f45565b8114610f6b57600080fd5b50565b600081359050610f7d81610f57565b92915050565b600060208284031215610f9957610f98610e06565b5b6000610fa784828501610f6e565b91505092915050565b600080fd5b7f4e487b7100000000000000000000000000000000000000000000000000000000600052604160045260246000fd5b610fed82610eb9565b810181811067ffffffffffffffff8211171561100c5761100b610fb5565b5b80604052505050565b600061101f610dfc565b905061102b8282610fe4565b919050565b600067ffffffffffffffff82111561104b5761104a610fb5565b5b602082029050602081019050919050565b600080fd5b600061107461106f84611030565b611015565b905080838252602082019050602084028301858111156110975761109661105c565b5b835b818110156110c057806110ac8882610e31565b845260208401935050602081019050611099565b5050509392505050565b600082601f8301126110df576110de610fb0565b5b81356110ef848260208601611061565b91505092915050565b6000806040838503121561110f5761110e610e06565b5b600083013567ffffffffffffffff81111561112d5761112c610e0b565b5b611139858286016110ca565b925050602083013567ffffffffffffffff81111561115a57611159610e0b565b5b611166858286016110ca565b9150509250929050565b600081519050919050565b600082825260208201905092915050565b6000819050602082019050919050565b6111a581610e10565b82525050565b60006111b7838361119c565b60208301905092915050565b6000602082019050919050565b60006111db82611170565b6111e5818561117b565b93506111f08361118c565b8060005b8381101561122157815161120888826111ab565b9750611213836111c3565b9250506001810190506111f4565b5085935050505092915050565b6000602082019050818103600083015261124881846111d0565b905092915050565b6000806040838503121561126757611266610e06565b5b600061127585828601610f6e565b925050602061128685828601610e31565b9150509250929050565b61129981610e10565b82525050565b60006020820190506112b46000830184611290565b92915050565b600080604083850312156112d1576112d0610e06565b5b600083013567ffffffffffffffff8111156112ef576112ee610e0b565b5b6112fb858286016110ca565b925050602061130c85828601610e31565b9150509250929050565b6000819050919050565b61132981611316565b82525050565b60006020820190506113446000830184611320565b92915050565b600080fd5b600067ffffffffffffffff82111561136a57611369610fb5565b5b61137382610eb9565b9050602081019050919050565b82818337600083830152505050565b60006113a261139d8461134f565b611015565b9050828152602081018484840111156113be576113bd61134a565b5b6113c9848285611380565b509392505050565b600082601f8301126113e6576113e5610fb0565b5b81356113f684826020860161138f565b91505092915050565b60006020828403121561141557611414610e06565b5b600082013567ffffffffffffffff81111561143357611432610e0b565b5b61143f848285016113d1565b91505092915050565b7f4e487b7100000000000000000000000000000000000000000000000000000000600052603260045260246000fd5b7f4e487b7100000000000000000000000000000000000000000000000000000000600052601160045260246000fd5b60006114b182610e10565b91506114bc83610e10565b92508282039050818111156114d4576114d3611477565b5b92915050565b600081905092915050565b60006114f082610e73565b6114fa81856114da565b935061150a818560208601610e8f565b80840191505092915050565b7f4e487b7100000000000000000000000000000000000000000000000000000000600052602260045260246000fd5b6000600282049050600182168061155d57607f821691505b6020821081036115705761156f611516565b5b50919050565b60008190508160005260206000209050919050565b6000815461159881611545565b6115a281866114da565b945060018216600081146115bd57600181146115d257611605565b60ff1983168652811515820286019350611605565b6115db85611576565b60005b838110156115fd578154818901526001820191506020810190506115de565b838801955050505b50505092915050565b600061161a82856114e5565b9150611626828461158b565b91508190509392505050565b7f4f776e61626c653a63616c6c6572206973206e6f7420746865206f776e657200600082015250565b6000611668601f83610e7e565b915061167382611632565b602082019050919050565b600060208201905081810360008301526116978161165b565b9050919050565b60006116a982610e10565b91506116b483610e10565b92508282019050808211156116cc576116cb611477565b5b92915050565b60006116dd82610e10565b91507fffffffffffffffffffffffffffffffffffffffffffffffffffffffffffffffff820361170f5761170e611477565b5b600182019050919050565b7f4e487b7100000000000000000000000000000000000000000000000000000000600052601260045260246000fd5b600061175482610e10565b915061175f83610e10565b92508261176f5761176e61171a565b5b828204905092915050565b7f4900000000000000000000000000000000000000000000000000000000000000600082015250565b60006117b06001836114da565b91506117bb8261177a565b600182019050919050565b60006117d1826117a3565b9150819050919050565b7f5600000000000000000000000000000000000000000000000000000000000000600082015250565b60006118116001836114da565b915061181c826117db565b600182019050919050565b600061183282611804565b9150819050919050565b7f5800000000000000000000000000000000000000000000000000000000000000600082015250565b60006118726001836114da565b915061187d8261183c565b600182019050919050565b600061189382611865565b9150819050919050565b7f4c00000000000000000000000000000000000000000000000000000000000000600082015250565b60006118d36001836114da565b91506118de8261189d565b600182019050919050565b60006118f4826118c6565b9150819050919050565b7f4300000000000000000000000000000000000000000000000000000000000000600082015250565b60006119346001836114da565b915061193f826118fe565b600182019050919050565b600061195582611927565b9150819050919050565b7f4400000000000000000000000000000000000000000000000000000000000000600082015250565b60006119956001836114da565b91506119a08261195f565b600182019050919050565b60006119b682611988565b9150819050919050565b7f4d00000000000000000000000000000000000000000000000000000000000000600082015250565b60006119f66001836114da565b9150611a01826119c0565b600182019050919050565b6000611a17826119e9565b9150819050919050565b6000611a2d82846114e5565b915081905092915050565b6000611a4382610e10565b9150611a4e83610e10565b9250828202611a5c81610e10565b91508282048414831517611a7357611a72611477565b5b5092915050565b7f4e487b7100000000000000000000000000000000000000000000000000000000600052605160045260246000fdfea2646970667358221220844ea28f18156adc83174ac061768fbb08fa911ca915b55a2d7fc380957228df64736f6c634300081c0033",
  "linkReferences": {},
  "deployedLinkReferences": {}
}