{
  "_format": "hh-sol-artifact-1",
  "contractName": "Voting",
  "sourceName": "contracts/task1.sol",
  "abi": [
    {
      "inputs": [],
      "stateMutability": "nonpayable",
      "type": "constructor"
    },
    {
      "inputs": [
        {
          "internalType": "string",
          "name": "str",
          "type": "string"
        }
      ],
      "name": "ReverseStr",
      "outputs": [
        {
          "internalType": "string",
          "name": "",
          "type": "string"
        }
      ],
      "stateMutability": "pure",
      "type": "function"
    },
    {
      "inputs": [
        {
          "internalType": "uint256[]",
          "name": "arr",
          "type": "uint256[]"
        },
        {
          "internalType": "uint256",
          "name": "value",
          "type": "uint256"
        }
      ],
      "name": "binarySearch",
      "outputs": [
        {
          "internalType": "int256",
          "name": "",
          "type": "int256"
        }
      ],
      "stateMutability": "pure",
      "type": "function"
    },
    {
      "inputs": [
        {
          "internalType": "address",
          "name": "candidate",
          "type": "address"
        }
      ],
      "name": "getVotes",
      "outputs": [
        {
          "internalType": "uint256",
          "name": "",
          "type": "uint256"
        }
      ],
      "stateMutability": "view",
      "type": "function"
    },
    {
      "inputs": [
        {
          "internalType": "uint256",
          "name": "num",
          "type": "uint256"
        }
      ],
      "name": "intToRoman",
      "outputs": [
        {
          "internalType": "string",
          "name": "",
          "type": "string"
        }
      ],
      "stateMutability": "nonpayable",
      "type": "function"
    },
    {
      "inputs": [
        {
          "internalType": "uint256[]",
          "name": "arr1",
          "type": "uint256[]"
        },
        {
          "internalType": "uint256[]",
          "name": "arr2",
          "type": "uint256[]"
        }
      ],
      "name": "mergeSortedArrays",
      "outputs": [
        {
          "internalType": "uint256[]",
          "name": "mergedArr",
          "type": "uint256[]"
        }
      ],
      "stateMutability": "pure",
      "type": "function"
    },
    {
      "inputs": [
        {
          "internalType": "address",
          "name": "owner",
          "type": "address"
        }
      ],
      "name": "resetVotes",
      "outputs": [],
      "stateMutability": "nonpayable",
      "type": "function"
    },
    {
      "inputs": [
        {
          "internalType": "string",
          "name": "roman",
          "type": "string"
        }
      ],
      "name": "romanToInt",
      "outputs": [
        {
          "internalType": "uint256",
          "name": "",
          "type": "uint256"
        }
      ],
      "stateMutability": "nonpayable",
      "type": "function"
    },
    {
      "inputs": [
        {
          "internalType": "address",
          "name": "candidate",
          "type": "address"
        },
        {
          "internalType": "uint256",
          "name": "voteVal",
          "type": "uint256"
        }
      ],
      "name": "vote",
      "outputs": [],
      "stateMutability": "nonpayable",
      "type": "function"
    }
  ],
  "bytecode": "0x6080604052604051806101a001604052806103e861ffff16815260200161038461ffff1681526020016101f461ffff16815260200161019061ffff168152602001606461ffff168152602001605a61ffff168152602001603261ffff168152602001602861ffff168152602001600a61ffff168152602001600961ffff168152602001600561ffff168152602001600461ffff168152602001600161ffff16815250600490600d6100b19291906103de565b50604051806101a001604052806040518060400160405280600181526020017f4d0000000000000000000000000000000000000000000000000000000000000081525081526020016040518060400160405280600281526020017f434d00000000000000000000000000000000000000000000000000000000000081525081526020016040518060400160405280600181526020017f440000000000000000000000000000000000000000000000000000000000000081525081526020016040518060400160405280600281526020017f434400000000000000000000000000000000000000000000000000000000000081525081526020016040518060400160405280600181526020017f430000000000000000000000000000000000000000000000000000000000000081525081526020016040518060400160405280600281526020017f584300000000000000000000000000000000000000000000000000000000000081525081526020016040518060400160405280600181526020017f4c0000000000000000000000000000000000000000000000000000000000000081525081526020016040518060400160405280600281526020017f584c00000000000000000000000000000000000000000000000000000000000081525081526020016040518060400160405280600181526020017f580000000000000000000000000000000000000000000000000000000000000081525081526020016040518060400160405280600281526020017f495800000000000000000000000000000000000000000000000000000000000081525081526020016040518060400160405280600181526020017f560000000000000000000000000000000000000000000000000000000000000081525081526020016040518060400160405280600281526020017f495600000000000000000000000000000000000000000000000000000000000081525081526020016040518060400160405280600181526020017f4900000000000000000000000000000000000000000000000000000000000000815250815250600590600d6103cb929190610431565b503480156103d857600080fd5b5061082d565b828054828255906000526020600020908101928215610420579160200282015b8281111561041f578251829061ffff169055916020019190600101906103fe565b5b50905061042d919061048a565b5090565b828054828255906000526020600020908101928215610479579160200282015b82811115610478578251829081610468919061075b565b5091602001919060010190610451565b5b50905061048691906104a7565b5090565b5b808211156104a357600081600090555060010161048b565b5090565b5b808211156104c757600081816104be91906104cb565b506001016104a8565b5090565b5080546104d790610574565b6000825580601f106104e95750610508565b601f016020900490600052602060002090810190610507919061048a565b5b50565b600081519050919050565b7f4e487b7100000000000000000000000000000000000000000000000000000000600052604160045260246000fd5b7f4e487b7100000000000000000000000000000000000000000000000000000000600052602260045260246000fd5b6000600282049050600182168061058c57607f821691505b60208210810361059f5761059e610545565b5b50919050565b60008190508160005260206000209050919050565b60006020601f8301049050919050565b600082821b905092915050565b6000600883026106077fffffffffffffffffffffffffffffffffffffffffffffffffffffffffffffffff826105ca565b61061186836105ca565b95508019841693508086168417925050509392505050565b6000819050919050565b6000819050919050565b600061065861065361064e84610629565b610633565b610629565b9050919050565b6000819050919050565b6106728361063d565b61068661067e8261065f565b8484546105d7565b825550505050565b600090565b61069b61068e565b6106a6818484610669565b505050565b5b818110156106ca576106bf600082610693565b6001810190506106ac565b5050565b601f82111561070f576106e0816105a5565b6106e9846105ba565b810160208510156106f8578190505b61070c610704856105ba565b8301826106ab565b50505b505050565b600082821c905092915050565b600061073260001984600802610714565b1980831691505092915050565b600061074b8383610721565b9150826002028217905092915050565b6107648261050b565b67ffffffffffffffff81111561077d5761077c610516565b5b6107878254610574565b6107928282856106ce565b600060209050601f8311600181146107c557600084156107b3578287015190505b6107bd858261073f565b865550610825565b601f1984166107d3866105a5565b60005b828110156107fb578489015182556001820191506020850194506020810190506107d6565b868310156108185784890151610814601f891682610721565b8355505b6001600288020188555050505b505050505050565b611add8061083c6000396000f3fe608060405234801561001057600080fd5b50600436106100885760003560e01c80639ab24eb01161005b5780639ab24eb014610125578063b12601da14610155578063caa41e1214610185578063cb159dfe146101b557610088565b80630cbc513a1461008d578063122d0b9c146100bd5780634cf0cc0d146100d95780635f74bbde14610109575b600080fd5b6100a760048036038101906100a29190610e44565b6101e5565b6040516100b49190610f01565b60405180910390f35b6100d760048036038101906100d29190610f81565b6102c3565b005b6100f360048036038101906100ee91906110f6565b6103c1565b604051610100919061122c565b60405180910390f35b610123600480360381019061011e919061124e565b6105ff565b005b61013f600480360381019061013a9190610f81565b61066d565b60405161014c919061129d565b60405180910390f35b61016f600480360381019061016a91906112b8565b6106b5565b60405161017c919061132d565b60405180910390f35b61019f600480360381019061019a91906113fd565b6107a1565b6040516101ac9190610f01565b60405180910390f35b6101cf60048036038101906101ca91906113fd565b61089a565b6040516101dc919061129d565b60405180910390f35b6060600060405180602001604052806000815250905060005b6004805490508110156102b0575b600481815481106102205761021f611446565b5b906000526020600020015484106102a3576004818154811061024557610244611446565b5b90600052602060002001548461025b91906114a4565b9350816005828154811061027257610271611446565b5b9060005260206000200160405160200161028d92919061160c565b604051602081830303815290604052915061020c565b80806001019150506101fe565b506102ba81610b38565b80915050919050565b3373ffffffffffffffffffffffffffffffffffffffff168173ffffffffffffffffffffffffffffffffffffffff1614610331576040517f08c379a00000000000000000000000000000000000000000000000000000000081526004016103289061167c565b60405180910390fd5b600061033d6001610bd1565b905060005b81518110156103bc5760008282815181106103605761035f611446565b5b6020026020010151905060008060008373ffffffffffffffffffffffffffffffffffffffff1673ffffffffffffffffffffffffffffffffffffffff16815260200190815260200160002081905550508080600101915050610342565b505050565b6060600083519050600083519050600081836103dd919061169c565b905060008167ffffffffffffffff8111156103fb576103fa610fb3565b5b6040519080825280602002602001820160405280156104295781602001602082028036833780820191505090505b50905060008060005b868310801561044057508582105b1561052f5788828151811061045857610457611446565b5b60200260200101518a848151811061047357610472611446565b5b6020026020010151116104d75789838061048c906116d0565b94508151811061049f5761049e611446565b5b60200260200101518482806104b3906116d0565b9350815181106104c6576104c5611446565b5b60200260200101818152505061052a565b8882806104e3906116d0565b9350815181106104f6576104f5611446565b5b602002602001015184828061050a906116d0565b93508151811061051d5761051c611446565b5b6020026020010181815250505b610432565b5b8683101561058f57898380610544906116d0565b94508151811061055757610556611446565b5b602002602001015184828061056b906116d0565b93508151811061057e5761057d611446565b5b602002602001018181525050610530565b5b858210156105ef578882806105a4906116d0565b9350815181106105b7576105b6611446565b5b60200260200101518482806105cb906116d0565b9350815181106105de576105dd611446565b5b602002602001018181525050610590565b8397505050505050505092915050565b806000808473ffffffffffffffffffffffffffffffffffffffff1673ffffffffffffffffffffffffffffffffffffffff168152602001908152602001600020600082825461064d919061169c565b92505081905550610668826001610bf290919063ffffffff16565b505050565b60008060008373ffffffffffffffffffffffffffffffffffffffff1673ffffffffffffffffffffffffffffffffffffffff168152602001908152602001600020549050919050565b600080600090506000600185516106cc91906114a4565b90505b808211610775576000600283836106e691906114a4565b6106f09190611747565b836106fb919061169c565b90508486828151811061071157610710611446565b5b6020026020010151036107295780935050505061079b565b8486828151811061073d5761073c611446565b5b6020026020010151101561075f57600181610758919061169c565b925061076f565b60018161076c91906114a4565b91505b506106cf565b7fffffffffffffffffffffffffffffffffffffffffffffffffffffffffffffffff925050505b92915050565b6060600082905060008151905060008167ffffffffffffffff8111156107ca576107c9610fb3565b5b6040519080825280601f01601f1916602001820160405280156107fc5781602001600182028036833780820191505090505b50905060005b8281101561088e57838160018561081991906114a4565b61082391906114a4565b8151811061083457610833611446565b5b602001015160f81c60f81b82828151811061085257610851611446565b5b60200101907effffffffffffffffffffffffffffffffffffffffffffffffffffffffffffff1916908160001a9053508080600101915050610802565b50809350505050919050565b6000600160036040516108ac906117c4565b908152602001604051809103902081905550600560036040516108ce90611825565b908152602001604051809103902081905550600a60036040516108f090611886565b90815260200160405180910390208190555060326003604051610912906118e7565b9081526020016040518091039020819055506064600360405161093490611948565b9081526020016040518091039020819055506101f46003604051610957906119a9565b9081526020016040518091039020819055506103e8600360405161097a90611a0a565b908152602001604051809103902081905550600080600084905060005b8151811015610b23576000600167ffffffffffffffff8111156109bd576109bc610fb3565b5b6040519080825280601f01601f1916602001820160405280156109ef5781602001600182028036833780820191505090505b509050828281518110610a0557610a04611446565b5b602001015160f81c60f81b81600081518110610a2457610a23611446565b5b60200101907effffffffffffffffffffffffffffffffffffffffffffffffffffffffffffff1916908160001a905350600081905084600382604051610a699190611a1f565b9081526020016040518091039020541115610ac657846002610a8b9190611a36565b600382604051610a9b9190611a1f565b908152602001604051809103902054610ab491906114a4565b86610abf919061169c565b9550610af3565b600381604051610ad69190611a1f565b90815260200160405180910390205486610af0919061169c565b95505b600381604051610b039190611a1f565b908152602001604051809103902054945050508080600101915050610997565b50610b2d83610c22565b829350505050919050565b610bce81604051602401610b4c9190610f01565b6040516020818303038152906040527f41304fac000000000000000000000000000000000000000000000000000000007bffffffffffffffffffffffffffffffffffffffffffffffffffffffff19166020820180517bffffffffffffffffffffffffffffffffffffffffffffffffffffffff8381831617835250505050610cbb565b50565b60606000610be183600001610cd5565b905060608190508092505050919050565b6000610c1a836000018373ffffffffffffffffffffffffffffffffffffffff1660001b610d31565b905092915050565b610cb881604051602401610c36919061129d565b6040516020818303038152906040527ff82c50f1000000000000000000000000000000000000000000000000000000007bffffffffffffffffffffffffffffffffffffffffffffffffffffffff19166020820180517bffffffffffffffffffffffffffffffffffffffffffffffffffffffff8381831617835250505050610cbb565b50565b610cd281610cca610da1610dc2565b63ffffffff16565b50565b606081600001805480602002602001604051908101604052809291908181526020018280548015610d2557602002820191906000526020600020905b815481526020019060010190808311610d11575b50505050509050919050565b6000610d3d8383610dcd565b610d96578260000182908060018154018082558091505060019003906000526020600020016000909190919091505582600001805490508360010160008481526020019081526020016000208190555060019050610d9b565b600090505b92915050565b60006a636f6e736f6c652e6c6f679050600080835160208501845afa505050565b610df0819050919050565b600080836001016000848152602001908152602001600020541415905092915050565b610df8611a78565b565b6000604051905090565b600080fd5b600080fd5b6000819050919050565b610e2181610e0e565b8114610e2c57600080fd5b50565b600081359050610e3e81610e18565b92915050565b600060208284031215610e5a57610e59610e04565b5b6000610e6884828501610e2f565b91505092915050565b600081519050919050565b600082825260208201905092915050565b60005b83811015610eab578082015181840152602081019050610e90565b60008484015250505050565b6000601f19601f8301169050919050565b6000610ed382610e71565b610edd8185610e7c565b9350610eed818560208601610e8d565b610ef681610eb7565b840191505092915050565b60006020820190508181036000830152610f1b8184610ec8565b905092915050565b600073ffffffffffffffffffffffffffffffffffffffff82169050919050565b6000610f4e82610f23565b9050919050565b610f5e81610f43565b8114610f6957600080fd5b50565b600081359050610f7b81610f55565b92915050565b600060208284031215610f9757610f96610e04565b5b6000610fa584828501610f6c565b91505092915050565b600080fd5b7f4e487b7100000000000000000000000000000000000000000000000000000000600052604160045260246000fd5b610feb82610eb7565b810181811067ffffffffffffffff8211171561100a57611009610fb3565b5b80604052505050565b600061101d610dfa565b90506110298282610fe2565b919050565b600067ffffffffffffffff82111561104957611048610fb3565b5b602082029050602081019050919050565b600080fd5b600061107261106d8461102e565b611013565b905080838252602082019050602084028301858111156110955761109461105a565b5b835b818110156110be57806110aa8882610e2f565b845260208401935050602081019050611097565b5050509392505050565b600082601f8301126110dd576110dc610fae565b5b81356110ed84826020860161105f565b91505092915050565b6000806040838503121561110d5761110c610e04565b5b600083013567ffffffffffffffff81111561112b5761112a610e09565b5b611137858286016110c8565b925050602083013567ffffffffffffffff81111561115857611157610e09565b5b611164858286016110c8565b9150509250929050565b600081519050919050565b600082825260208201905092915050565b6000819050602082019050919050565b6111a381610e0e565b82525050565b60006111b5838361119a565b60208301905092915050565b6000602082019050919050565b60006111d98261116e565b6111e38185611179565b93506111ee8361118a565b8060005b8381101561121f57815161120688826111a9565b9750611211836111c1565b9250506001810190506111f2565b5085935050505092915050565b6000602082019050818103600083015261124681846111ce565b905092915050565b6000806040838503121561126557611264610e04565b5b600061127385828601610f6c565b925050602061128485828601610e2f565b9150509250929050565b61129781610e0e565b82525050565b60006020820190506112b2600083018461128e565b92915050565b600080604083850312156112cf576112ce610e04565b5b600083013567ffffffffffffffff8111156112ed576112ec610e09565b5b6112f9858286016110c8565b925050602061130a85828601610e2f565b9150509250929050565b6000819050919050565b61132781611314565b82525050565b6000602082019050611342600083018461131e565b92915050565b600080fd5b600067ffffffffffffffff82111561136857611367610fb3565b5b61137182610eb7565b9050602081019050919050565b82818337600083830152505050565b60006113a061139b8461134d565b611013565b9050828152602081018484840111156113bc576113bb611348565b5b6113c784828561137e565b509392505050565b600082601f8301126113e4576113e3610fae565b5b81356113f484826020860161138d565b91505092915050565b60006020828403121561141357611412610e04565b5b600082013567ffffffffffffffff81111561143157611430610e09565b5b61143d848285016113cf565b91505092915050565b7f4e487b7100000000000000000000000000000000000000000000000000000000600052603260045260246000fd5b7f4e487b7100000000000000000000000000000000000000000000000000000000600052601160045260246000fd5b60006114af82610e0e565b91506114ba83610e0e565b92508282039050818111156114d2576114d1611475565b5b92915050565b600081905092915050565b60006114ee82610e71565b6114f881856114d8565b9350611508818560208601610e8d565b80840191505092915050565b7f4e487b7100000000000000000000000000000000000000000000000000000000600052602260045260246000fd5b6000600282049050600182168061155b57607f821691505b60208210810361156e5761156d611514565b5b50919050565b60008190508160005260206000209050919050565b6000815461159681611543565b6115a081866114d8565b945060018216600081146115bb57600181146115d057611603565b60ff1983168652811515820286019350611603565b6115d985611574565b60005b838110156115fb578154818901526001820191506020810190506115dc565b838801955050505b50505092915050565b600061161882856114e3565b91506116248284611589565b91508190509392505050565b7f4f776e61626c653a63616c6c6572206973206e6f7420746865206f776e657200600082015250565b6000611666601f83610e7c565b915061167182611630565b602082019050919050565b6000602082019050818103600083015261169581611659565b9050919050565b60006116a782610e0e565b91506116b283610e0e565b92508282019050808211156116ca576116c9611475565b5b92915050565b60006116db82610e0e565b91507fffffffffffffffffffffffffffffffffffffffffffffffffffffffffffffffff820361170d5761170c611475565b5b600182019050919050565b7f4e487b7100000000000000000000000000000000000000000000000000000000600052601260045260246000fd5b600061175282610e0e565b915061175d83610e0e565b92508261176d5761176c611718565b5b828204905092915050565b7f4900000000000000000000000000000000000000000000000000000000000000600082015250565b60006117ae6001836114d8565b91506117b982611778565b600182019050919050565b60006117cf826117a1565b9150819050919050565b7f5600000000000000000000000000000000000000000000000000000000000000600082015250565b600061180f6001836114d8565b915061181a826117d9565b600182019050919050565b600061183082611802565b9150819050919050565b7f5800000000000000000000000000000000000000000000000000000000000000600082015250565b60006118706001836114d8565b915061187b8261183a565b600182019050919050565b600061189182611863565b9150819050919050565b7f4c00000000000000000000000000000000000000000000000000000000000000600082015250565b60006118d16001836114d8565b91506118dc8261189b565b600182019050919050565b60006118f2826118c4565b9150819050919050565b7f4300000000000000000000000000000000000000000000000000000000000000600082015250565b60006119326001836114d8565b915061193d826118fc565b600182019050919050565b600061195382611925565b9150819050919050565b7f4400000000000000000000000000000000000000000000000000000000000000600082015250565b60006119936001836114d8565b915061199e8261195d565b600182019050919050565b60006119b482611986565b9150819050919050565b7f4d00000000000000000000000000000000000000000000000000000000000000600082015250565b60006119f46001836114d8565b91506119ff826119be565b600182019050919050565b6000611a15826119e7565b9150819050919050565b6000611a2b82846114e3565b915081905092915050565b6000611a4182610e0e565b9150611a4c83610e0e565b9250828202611a5a81610e0e565b91508282048414831517611a7157611a70611475565b5b5092915050565b7f4e487b7100000000000000000000000000000000000000000000000000000000600052605160045260246000fdfea264697066735822122035410af406b3b4356a00c6dc46e27b157ad4ec3971718d271c5454c82d133cb164736f6c634300081c0033",
  "linkReferences": {},
  "deployedLinkReferences": {}
}