{
  "_format": "hh-sol-artifact-1",
  "contractName": "Dex",
  "sourceName": "contracts/Erc20T.sol",
  "abi": [
    {
      "inputs": [
        {
          "internalType": "address",
          "name": "_erc20V1",
          "type": "address"
        }
      ],
      "stateMutability": "nonpayable",
      "type": "constructor"
    },
    {
      "inputs": [],
      "name": "erc20V1",
      "outputs": [
        {
          "internalType": "address",
          "name": "",
          "type": "address"
        }
      ],
      "stateMutability": "view",
      "type": "function"
    },
    {
      "inputs": [
        {
          "internalType": "address",
          "name": "to",
          "type": "address"
        },
        {
          "internalType": "uint256",
          "name": "amount",
          "type": "uint256"
        }
      ],
      "name": "transferFromTo",
      "outputs": [],
      "stateMutability": "nonpayable",
      "type": "function"
    },
    {
      "inputs": [
        {
          "internalType": "address",
          "name": "to",
          "type": "address"
        },
        {
          "internalType": "uint256",
          "name": "amount",
          "type": "uint256"
        }
      ],
      "name": "transferTo",
      "outputs": [],
      "stateMutability": "nonpayable",
      "type": "function"
    }
  ],
  "bytecode": "0x608060405234801561001057600080fd5b5060405161052c38038061052c833981810160405281019061003291906100db565b806000806101000a81548173ffffffffffffffffffffffffffffffffffffffff021916908373ffffffffffffffffffffffffffffffffffffffff16021790555050610108565b600080fd5b600073ffffffffffffffffffffffffffffffffffffffff82169050919050565b60006100a88261007d565b9050919050565b6100b88161009d565b81146100c357600080fd5b50565b6000815190506100d5816100af565b92915050565b6000602082840312156100f1576100f0610078565b5b60006100ff848285016100c6565b91505092915050565b610415806101176000396000f3fe608060405234801561001057600080fd5b50600436106100415760003560e01c80631f581baa146100465780632ccb1b3014610064578063564be49914610080575b600080fd5b61004e61009c565b60405161005b9190610249565b60405180910390f35b61007e600480360381019061007991906102cb565b6100c0565b005b61009a600480360381019061009591906102cb565b610163565b005b60008054906101000a900473ffffffffffffffffffffffffffffffffffffffff1681565b60008054906101000a900473ffffffffffffffffffffffffffffffffffffffff1673ffffffffffffffffffffffffffffffffffffffff1663a9059cbb83836040518363ffffffff1660e01b815260040161011b92919061031a565b6020604051808303816000875af115801561013a573d6000803e3d6000fd5b505050506040513d601f19601f8201168201806040525081019061015e919061037b565b505050565b60008054906101000a900473ffffffffffffffffffffffffffffffffffffffff1673ffffffffffffffffffffffffffffffffffffffff166323b872dd3384846040518463ffffffff1660e01b81526004016101c0939291906103a8565b6020604051808303816000875af11580156101df573d6000803e3d6000fd5b505050506040513d601f19601f82011682018060405250810190610203919061037b565b505050565b600073ffffffffffffffffffffffffffffffffffffffff82169050919050565b600061023382610208565b9050919050565b61024381610228565b82525050565b600060208201905061025e600083018461023a565b92915050565b600080fd5b61027281610228565b811461027d57600080fd5b50565b60008135905061028f81610269565b92915050565b6000819050919050565b6102a881610295565b81146102b357600080fd5b50565b6000813590506102c58161029f565b92915050565b600080604083850312156102e2576102e1610264565b5b60006102f085828601610280565b9250506020610301858286016102b6565b9150509250929050565b61031481610295565b82525050565b600060408201905061032f600083018561023a565b61033c602083018461030b565b9392505050565b60008115159050919050565b61035881610343565b811461036357600080fd5b50565b6000815190506103758161034f565b92915050565b60006020828403121561039157610390610264565b5b600061039f84828501610366565b91505092915050565b60006060820190506103bd600083018661023a565b6103ca602083018561023a565b6103d7604083018461030b565b94935050505056fea264697066735822122037e0f86ecdd73d32f2f08ff7b05101cd2ba5f6dfccc8f85cad8fbe1b3de9414564736f6c634300081c0033",
  "linkReferences": {},
  "deployedLinkReferences": {}
}