{
  "_format": "hh-sol-artifact-1",
  "contractName": "Erc20T",
  "sourceName": "contracts/Erc20T.sol",
  "abi": [
    {
      "inputs": [
        {
          "internalType": "uint256",
          "name": "_initTotalSupply",
          "type": "uint256"
        }
      ],
      "stateMutability": "nonpayable",
      "type": "constructor"
    },
    {
      "anonymous": false,
      "inputs": [
        {
          "indexed": true,
          "internalType": "address",
          "name": "owner",
          "type": "address"
        },
        {
          "indexed": true,
          "internalType": "address",
          "name": "spender",
          "type": "address"
        },
        {
          "indexed": false,
          "internalType": "uint256",
          "name": "amount",
          "type": "uint256"
        }
      ],
      "name": "Approval",
      "type": "event"
    },
    {
      "anonymous": false,
      "inputs": [
        {
          "indexed": true,
          "internalType": "address",
          "name": "from",
          "type": "address"
        },
        {
          "indexed": true,
          "internalType": "address",
          "name": "to",
          "type": "address"
        },
        {
          "indexed": false,
          "internalType": "uint256",
          "name": "amount",
          "type": "uint256"
        }
      ],
      "name": "Transfer",
      "type": "event"
    },
    {
      "inputs": [],
      "name": "_owner",
      "outputs": [
        {
          "internalType": "address",
          "name": "",
          "type": "address"
        }
      ],
      "stateMutability": "view",
      "type": "function"
    },
    {
      "inputs": [
        {
          "internalType": "address",
          "name": "",
          "type": "address"
        },
        {
          "internalType": "address",
          "name": "",
          "type": "address"
        }
      ],
      "name": "allowance",
      "outputs": [
        {
          "internalType": "uint256",
          "name": "",
          "type": "uint256"
        }
      ],
      "stateMutability": "view",
      "type": "function"
    },
    {
      "inputs": [
        {
          "internalType": "address",
          "name": "spender",
          "type": "address"
        },
        {
          "internalType": "uint256",
          "name": "amount",
          "type": "uint256"
        }
      ],
      "name": "approve",
      "outputs": [
        {
          "internalType": "bool",
          "name": "",
          "type": "bool"
        }
      ],
      "stateMutability": "nonpayable",
      "type": "function"
    },
    {
      "inputs": [
        {
          "internalType": "address",
          "name": "",
          "type": "address"
        }
      ],
      "name": "balanceOf",
      "outputs": [
        {
          "internalType": "uint256",
          "name": "",
          "type": "uint256"
        }
      ],
      "stateMutability": "view",
      "type": "function"
    },
    {
      "inputs": [
        {
          "internalType": "uint256",
          "name": "amount",
          "type": "uint256"
        }
      ],
      "name": "burn",
      "outputs": [],
      "stateMutability": "nonpayable",
      "type": "function"
    },
    {
      "inputs": [],
      "name": "decimals",
      "outputs": [
        {
          "internalType": "uint8",
          "name": "",
          "type": "uint8"
        }
      ],
      "stateMutability": "view",
      "type": "function"
    },
    {
      "inputs": [
        {
          "internalType": "address",
          "name": "to",
          "type": "address"
        },
        {
          "internalType": "uint256",
          "name": "amount",
          "type": "uint256"
        }
      ],
      "name": "mint",
      "outputs": [],
      "stateMutability": "nonpayable",
      "type": "function"
    },
    {
      "inputs": [],
      "name": "name",
      "outputs": [
        {
          "internalType": "string",
          "name": "",
          "type": "string"
        }
      ],
      "stateMutability": "view",
      "type": "function"
    },
    {
      "inputs": [],
      "name": "symbol",
      "outputs": [
        {
          "internalType": "string",
          "name": "",
          "type": "string"
        }
      ],
      "stateMutability": "view",
      "type": "function"
    },
    {
      "inputs": [],
      "name": "totalSupply",
      "outputs": [
        {
          "internalType": "uint256",
          "name": "",
          "type": "uint256"
        }
      ],
      "stateMutability": "view",
      "type": "function"
    },
    {
      "inputs": [
        {
          "internalType": "address",
          "name": "to",
          "type": "address"
        },
        {
          "internalType": "uint256",
          "name": "amount",
          "type": "uint256"
        }
      ],
      "name": "transfer",
      "outputs": [
        {
          "internalType": "bool",
          "name": "",
          "type": "bool"
        }
      ],
      "stateMutability": "nonpayable",
      "type": "function"
    },
    {
      "inputs": [
        {
          "internalType": "address",
          "name": "from",
          "type": "address"
        },
        {
          "internalType": "address",
          "name": "to",
          "type": "address"
        },
        {
          "internalType": "uint256",
          "name": "amount",
          "type": "uint256"
        }
      ],
      "name": "transferFrom",
      "outputs": [
        {
          "internalType": "bool",
          "name": "",
          "type": "bool"
        }
      ],
      "stateMutability": "nonpayable",
      "type": "function"
    }
  ],
  "bytecode": "0x608060405234801561001057600080fd5b506040516111833803806111838339818101604052810190610032919061020d565b33600260006101000a81548173ffffffffffffffffffffffffffffffffffffffff021916908373ffffffffffffffffffffffffffffffffffffffff160217905550610083338261008960201b60201c565b5061031a565b3373ffffffffffffffffffffffffffffffffffffffff16600260009054906101000a900473ffffffffffffffffffffffffffffffffffffffff1673ffffffffffffffffffffffffffffffffffffffff1614610119576040517f08c379a000000000000000000000000000000000000000000000000000000000815260040161011090610297565b60405180910390fd5b8060008082825461012a91906102e6565b92505081905560008190555080600160008473ffffffffffffffffffffffffffffffffffffffff1673ffffffffffffffffffffffffffffffffffffffff168152602001908152602001600020600082825461018591906102e6565b925050819055600160008473ffffffffffffffffffffffffffffffffffffffff1673ffffffffffffffffffffffffffffffffffffffff168152602001908152602001600020819055505050565b600080fd5b6000819050919050565b6101ea816101d7565b81146101f557600080fd5b50565b600081519050610207816101e1565b92915050565b600060208284031215610223576102226101d2565b5b6000610231848285016101f8565b91505092915050565b600082825260208201905092915050565b7f4f776e61626c653a63616c6c6572206973206e6f7420746865206f776e657200600082015250565b6000610281601f8361023a565b915061028c8261024b565b602082019050919050565b600060208201905081810360008301526102b081610274565b9050919050565b7f4e487b7100000000000000000000000000000000000000000000000000000000600052601160045260246000fd5b60006102f1826101d7565b91506102fc836101d7565b9250828201905080821115610314576103136102b7565b5b92915050565b610e5a806103296000396000f3fe608060405234801561001057600080fd5b50600436106100b45760003560e01c806342966c681161007157806342966c681461018f57806370a08231146101ab57806395d89b41146101db578063a9059cbb146101f9578063b2bdfa7b14610229578063dd62ed3e14610247576100b4565b806306fdde03146100b9578063095ea7b3146100d757806318160ddd1461010757806323b872dd14610125578063313ce5671461015557806340c10f1914610173575b600080fd5b6100c1610277565b6040516100ce9190610a0c565b60405180910390f35b6100f160048036038101906100ec9190610ac7565b6102b0565b6040516100fe9190610b22565b60405180910390f35b61010f6102c7565b60405161011c9190610b4c565b60405180910390f35b61013f600480360381019061013a9190610b67565b6102cd565b60405161014c9190610b22565b60405180910390f35b61015d610438565b60405161016a9190610bd6565b60405180910390f35b61018d60048036038101906101889190610ac7565b61043d565b005b6101a960048036038101906101a49190610bf1565b610586565b005b6101c560048036038101906101c09190610c1e565b610644565b6040516101d29190610b4c565b60405180910390f35b6101e361065c565b6040516101f09190610a0c565b60405180910390f35b610213600480360381019061020e9190610ac7565b610695565b6040516102209190610b22565b60405180910390f35b6102316106ac565b60405161023e9190610c5a565b60405180910390f35b610261600480360381019061025c9190610c75565b6106d2565b60405161026e9190610b4c565b60405180910390f35b6040518060400160405280600981526020017f455243323054455354000000000000000000000000000000000000000000000081525081565b60006102bd3384846106f7565b6001905092915050565b60005481565b600080600360008673ffffffffffffffffffffffffffffffffffffffff1673ffffffffffffffffffffffffffffffffffffffff16815260200190815260200160002060003373ffffffffffffffffffffffffffffffffffffffff1673ffffffffffffffffffffffffffffffffffffffff16815260200190815260200160002054905082811015610392576040517f08c379a000000000000000000000000000000000000000000000000000000000815260040161038990610d01565b60405180910390fd5b828161039e9190610d50565b905080600360008773ffffffffffffffffffffffffffffffffffffffff1673ffffffffffffffffffffffffffffffffffffffff16815260200190815260200160002060003373ffffffffffffffffffffffffffffffffffffffff1673ffffffffffffffffffffffffffffffffffffffff1681526020019081526020016000208190555061042c8585856107e2565b60019150509392505050565b601281565b3373ffffffffffffffffffffffffffffffffffffffff16600260009054906101000a900473ffffffffffffffffffffffffffffffffffffffff1673ffffffffffffffffffffffffffffffffffffffff16146104cd576040517f08c379a00000000000000000000000000000000000000000000000000000000081526004016104c490610dd0565b60405180910390fd5b806000808282546104de9190610df0565b92505081905560008190555080600160008473ffffffffffffffffffffffffffffffffffffffff1673ffffffffffffffffffffffffffffffffffffffff16815260200190815260200160002060008282546105399190610df0565b925050819055600160008473ffffffffffffffffffffffffffffffffffffffff1673ffffffffffffffffffffffffffffffffffffffff168152602001908152602001600020819055505050565b600033905081600160008373ffffffffffffffffffffffffffffffffffffffff1673ffffffffffffffffffffffffffffffffffffffff16815260200190815260200160002060008282546105da9190610d50565b925050819055600160008373ffffffffffffffffffffffffffffffffffffffff1673ffffffffffffffffffffffffffffffffffffffff16815260200190815260200160002081905550816000808282546106349190610d50565b9250508190556000819055505050565b60016020528060005260406000206000915090505481565b6040518060400160405280600381526020017f454354000000000000000000000000000000000000000000000000000000000081525081565b60006106a23384846107e2565b6001905092915050565b600260009054906101000a900473ffffffffffffffffffffffffffffffffffffffff1681565b6003602052816000526040600020602052806000526040600020600091509150505481565b80600360008573ffffffffffffffffffffffffffffffffffffffff1673ffffffffffffffffffffffffffffffffffffffff16815260200190815260200160002060008473ffffffffffffffffffffffffffffffffffffffff1673ffffffffffffffffffffffffffffffffffffffff168152602001908152602001600020819055508173ffffffffffffffffffffffffffffffffffffffff168373ffffffffffffffffffffffffffffffffffffffff167f8c5be1e5ebec7d5bd14f71427d1e84f3dd0314c0f7b2291e5b200ac8c7c3b925836040516107d59190610b4c565b60405180910390a3505050565b80600160008573ffffffffffffffffffffffffffffffffffffffff1673ffffffffffffffffffffffffffffffffffffffff16815260200190815260200160002060008282546108319190610d50565b925050819055600160008573ffffffffffffffffffffffffffffffffffffffff1673ffffffffffffffffffffffffffffffffffffffff1681526020019081526020016000208190555080600160008473ffffffffffffffffffffffffffffffffffffffff1673ffffffffffffffffffffffffffffffffffffffff16815260200190815260200160002060008282546108c99190610df0565b925050819055600160008473ffffffffffffffffffffffffffffffffffffffff1673ffffffffffffffffffffffffffffffffffffffff168152602001908152602001600020819055508173ffffffffffffffffffffffffffffffffffffffff168373ffffffffffffffffffffffffffffffffffffffff167fddf252ad1be2c89b69c2b068fc378daa952ba7f163c4a11628f55a4df523b3ef8360405161096f9190610b4c565b60405180910390a3505050565b600081519050919050565b600082825260208201905092915050565b60005b838110156109b657808201518184015260208101905061099b565b60008484015250505050565b6000601f19601f8301169050919050565b60006109de8261097c565b6109e88185610987565b93506109f8818560208601610998565b610a01816109c2565b840191505092915050565b60006020820190508181036000830152610a2681846109d3565b905092915050565b600080fd5b600073ffffffffffffffffffffffffffffffffffffffff82169050919050565b6000610a5e82610a33565b9050919050565b610a6e81610a53565b8114610a7957600080fd5b50565b600081359050610a8b81610a65565b92915050565b6000819050919050565b610aa481610a91565b8114610aaf57600080fd5b50565b600081359050610ac181610a9b565b92915050565b60008060408385031215610ade57610add610a2e565b5b6000610aec85828601610a7c565b9250506020610afd85828601610ab2565b9150509250929050565b60008115159050919050565b610b1c81610b07565b82525050565b6000602082019050610b376000830184610b13565b92915050565b610b4681610a91565b82525050565b6000602082019050610b616000830184610b3d565b92915050565b600080600060608486031215610b8057610b7f610a2e565b5b6000610b8e86828701610a7c565b9350506020610b9f86828701610a7c565b9250506040610bb086828701610ab2565b9150509250925092565b600060ff82169050919050565b610bd081610bba565b82525050565b6000602082019050610beb6000830184610bc7565b92915050565b600060208284031215610c0757610c06610a2e565b5b6000610c1584828501610ab2565b91505092915050565b600060208284031215610c3457610c33610a2e565b5b6000610c4284828501610a7c565b91505092915050565b610c5481610a53565b82525050565b6000602082019050610c6f6000830184610c4b565b92915050565b60008060408385031215610c8c57610c8b610a2e565b5b6000610c9a85828601610a7c565b9250506020610cab85828601610a7c565b9150509250929050565b7f45524332303a20696e73756666696369656e7420616c6c6f77616e6365000000600082015250565b6000610ceb601d83610987565b9150610cf682610cb5565b602082019050919050565b60006020820190508181036000830152610d1a81610cde565b9050919050565b7f4e487b7100000000000000000000000000000000000000000000000000000000600052601160045260246000fd5b6000610d5b82610a91565b9150610d6683610a91565b9250828203905081811115610d7e57610d7d610d21565b5b92915050565b7f4f776e61626c653a63616c6c6572206973206e6f7420746865206f776e657200600082015250565b6000610dba601f83610987565b9150610dc582610d84565b602082019050919050565b60006020820190508181036000830152610de981610dad565b9050919050565b6000610dfb82610a91565b9150610e0683610a91565b9250828201905080821115610e1e57610e1d610d21565b5b9291505056fea26469706673582212200918ca5c9b306ecddbbd4a611f04b59460a330b6aff812e5b357d45213d5b87f64736f6c634300081c0033",
  "linkReferences": {},
  "deployedLinkReferences": {}
}